:020000040000FA
:100000000C9462000C948A000C948A000C948A0070
:100010000C948A000C948A000C948A000C948A0038
:100020000C948A000C948A000C948A000C948A0028
:100030000C948A000C948A000C948A000C948A0018
:100040000C946A060C948A000C9438060C941206E0
:100050000C948A000C948A000C948A000C948A00F8
:100060000C94B4060C948A000000000024002700C1
:100070002A0000000000250028002B0000000000DE
:1000800023002600290004040404040404040202DA
:100090000202020203030303030301020408102007
:1000A0004080010204081020010204081020000012
:1000B0000008000201000003040700000000000027
:1000C0000000D30711241FBECFEFD8E0DEBFCDBFA5
:1000D00012E0A0E0B1E0E2E8F7E102C005900D9285
:1000E000AE3EB107D9F724E0AEEEB2E001C01D92FA
:1000F000A137B207E1F710E0C2E6D0E004C02197D3
:10010000FE010E94B90BC136D107C9F70E941C0835
:100110000C94BF0B0C94000008950895AF92BF9209
:10012000CF92DF92EF92FF920F931F93CF93DF93C3
:100130006C017B018B01040F151FEB015E01AE18F2
:10014000BF08C017D10759F06991D601ED91FC9114
:100150000190F081E02DC6010995892B79F7C50141
:10016000DF91CF911F910F91FF90EF90DF90CF9093
:10017000BF90AF900895FC01538D448D252F30E042
:10018000842F90E0821B930B541710F0CF960895A4
:1001900001970895FC01918D828D981761F0A28DD1
:1001A000AE0FBF2FB11D5D968C91928D9F5F9F7397
:1001B000928F90E008958FEF9FEF0895FC01918D4D
:1001C000828D981731F0828DE80FF11D858D90E0BA
:1001D00008958FEF9FEF0895FC01918D228D892F57
:1001E00090E0805C9F4F821B91098F73992708953F
:1001F00089EB93E00E94EC0021E0892B09F420E0D8
:10020000822F089580E090E0892B29F00E94F80069
:1002100081110C9400000895FC01A48DA80FB92F42
:10022000B11DA35ABF4F2C91848D90E001968F731E
:100230009927848FA689B7892C93A089B1898C913D
:10024000837080648C93938D848D981306C002888C
:10025000F389E02D80818F7D80830895EF92FF9256
:100260000F931F93CF93DF93EC0181E0888F9B8DD9
:100270008C8D98131AC0E889F989808185FF15C093
:100280009FB7F894EE89FF896083E889F9898081B6
:100290008370806480839FBF81E090E0DF91CF9185
:1002A0001F910F91FF90EF900895F62E0B8D10E0A7
:1002B0000F5F1F4F0F731127E02E8C8D8E110CC016
:1002C0000FB607FCFACFE889F989808185FFF5CF61
:1002D000CE010E940C01F1CFEB8DEC0FFD2FF11D33
:1002E000E35AFF4FF0829FB7F8940B8FEA89FB899E
:1002F00080818062CFCFCF93DF93EC01888D8823FC
:10030000B9F0AA89BB89E889F9898C9185FD03C078
:10031000808186FD0DC00FB607FCF7CF8C9185FF5D
:10032000F2CF808185FFEDCFCE010E940C01E9CF95
:10033000DF91CF910895833081F028F4813099F0D6
:100340008230A9F008958730A9F08830C9F0843050
:10035000B1F4809180008F7D03C0809180008F7701
:1003600080938000089584B58F7784BD089584B507
:100370008F7DFBCF8091B0008F778093B000089580
:100380008091B0008F7DF9CFCF93DF93282F30E09D
:10039000F901E255FF4F8491F901E656FF4FD491E0
:1003A000F901EA57FF4FC491CC23A1F081110E94BB
:1003B0009B01EC2FF0E0EE0FFF1FE458FF4FA591DB
:1003C000B491EC91ED2381E090E009F480E0DF91BD
:1003D000CF91089580E090E0FACF1F93CF93DF9301
:1003E000282F30E0F901E255FF4F8491F901E656DC
:1003F000FF4FD491F901EA57FF4FC491CC23A9F0E4
:10040000162F81110E949B01EC2FF0E0EE0FFF1FD1
:10041000EE58FF4FA591B4918FB7F894EC9111115C
:1004200008C0D095DE23DC938FBFDF91CF911F9161
:100430000895DE2BF8CFCF93DF9390E0FC01E656D2
:10044000FF4F24918A579F4FFC0184918823D1F05C
:1004500090E0880F991FFC01E859FF4FA591B491D6
:10046000FC01EE58FF4FC591D49161110EC09FB7AA
:10047000F8948C91E22FE0958E238C932881E223CF
:10048000E8839FBFDF91CF9108958FB7F894EC91E7
:10049000E22BEC938FBFF6CF3FB7F89480915703D0
:1004A00090915803A0915903B0915A0326B5A89B87
:1004B00005C02F3F19F00196A11DB11D3FBFBA2FF6
:1004C000A92F982F8827BC01CD01620F711D811DB6
:1004D000911D42E0660F771F881F991F4A95D1F73B
:1004E00008958F929F92AF92BF92CF92DF92EF9238
:1004F000FF924B015C010E944C026B017C010E9447
:100500004C026C197D098E099F09683E7340810574
:100510009105A8F321E0821A9108A108B10888EE9C
:10052000C80E83E0D81EE11CF11C81149104A104C3
:10053000B10429F7FF90EF90DF90CF90BF90AF907C
:100540009F908F900895089520912F03260F3327B1
:10055000331F21323105ECF420918F03FC0190E030
:1005600080E0243069F082E00895A0912F0321916A
:10057000AC01415F5C4FA40FB52FB11D2C930196C8
:10058000861798F380912F03680F60932F0380E004
:10059000089581E0089510928F0381E080938E0387
:1005A0001092690361E082E10E94ED0161E083E164
:1005B0000E94ED01E9EBF0E080818E7F80838081F5
:1005C0008D7F808388E48093B80085E48093BC00AD
:1005D0000895CF93DF9391E090930E038823B9F0B1
:1005E000C091B800D091BA008091BC008A7B809302
:1005F000BC0060E082E10E94ED0160E083E10E94C6
:10060000ED010E94CB02D093BA00C093B800DF91F5
:10061000CF910895CF92DF92EF92FF920F931F93A5
:10062000CF93DF93D091B80381E0D13208F09CC022
:10063000C091B7030E944C026B017C0180918F0333
:1006400081116CC082E080938F0381E080938E03E0
:100650008FEF80938D0310928C03D0938B03A7E9C7
:10066000B3E0EBE6F3E080E0D8138DC010926A03AC
:1006700080916A03CC0FC82BC0936A0380916903F1
:10068000813009F084C0109269030E944C026B0112
:100690007C0180916A038093BB00809191039091CB
:1006A0009203A0919303B0919403892B8A2B8B2BF7
:1006B000A1F00E944C0200919103109192032091AD
:1006C0009303309194036C197D098E099F090617D5
:1006D00017072807390708F442C08091BC0083FD42
:1006E000D8CF85EC8093BC000E944C026B017C014A
:1006F00080918F03823009F44CC080918D038F3F2D
:1007000009F469C080918D03803209F466C080913C
:100710008D03803309F463C084E026C08091910387
:1007200090919203A0919303B0919403892B8A2B0B
:100730008B2B09F483CF0E944C02009191031091FE
:10074000920320919303309194036C197D098E09D3
:100750009F09061717072807390708F06FCF809100
:1007600090030E94E90285E0109296031092B8036C
:1007700010929503DF91CF911F910F91FF90EF9011
:10078000DF90CF9008959D9191938F5F6DCF85EE0F
:10079000A9CF8091910390919203A0919303B0917E
:1007A0009403892B8A2B8B2B09F4A2CF0E944C0235
:1007B000009191031091920320919303309194033F
:1007C0006C197D098E099F09061717072807390735
:1007D00008F08ECFC4CF80E0C7CF82E0C5CF83E0E2
:1007E000C3CF0895E091600380915F03E81730F470
:1007F000F0E0E251FD4F808190E008958FEF9FEF90
:1008000008959091600380915F032FEF3FEF981759
:1008100048F4E92FF0E0E251FD4F208130E09F5F86
:1008200090936003C901089580915F0390916003E4
:10083000891B990B0895CF92DF92EF92FF920F934D
:100840001F93CF93DF937C01CB018A012091950305
:10085000222389F0EB016B01C40ED51ECC15DD05FA
:1008600069F06991D701ED91FC910190F081E02D43
:10087000C7010995F3CF642F0E94A402C801DF913C
:10088000CF911F910F91FF90EF90DF90CF9008953F
:10089000CF93DF931F92CDB7DEB769832091950385
:1008A0002223F9F02091B803203258F021E030E003
:1008B000FC013383228390E080E00F90DF91CF91A1
:1008C000089580919603E82FF0E0E956FC4F998156
:1008D00090838F5F809396038093B80381E090E0CC
:1008E000ECCF61E0CE0101960E94A402F7CFCF9336
:1008F000C62F90916D0421E0209395039093B70348
:10090000109296031092B803682F86E594E00E9437
:1009100048046C2F86E594E00E944804CF910C9423
:100920000A03EF92FF920F931F93CF93DF937B0104
:10093000FC01828591E0909395038093B703109218
:1009400096031092B803EB01042F10E0CE018E192C
:100950009F098017910764F4699186E594E00E94ED
:10096000480465E070E080E090E00E947102EECF04
:10097000DF91CF911F910F91FF90EF900C940A039C
:10098000CF93DF9300D01F92CDB7DEB71B8290E8E4
:1009900099838A8342E0BE016F5F7F4F82E694E0D5
:1009A0000E9491040F900F900F90DF91CF910895C6
:1009B00081E00E94C0048BE39FE10197F1F7089565
:1009C000CF93DF9300D01F92CDB7DEB7611113C074
:1009D00080681B8290E899838A8342E0BE016F5F42
:1009E0007F4F82E694E00E9491040F900F900F9049
:1009F000DF91CF910895806CECCFCF93DF9300D03F
:100A00001F92CDB7DEB71B8220E429836A8342E0C0
:100A1000BE016F5F7F4F0E94910481E090E00F90D4
:100A20000F900F90DF91CF91089590E080E00895AE
:100A3000FB0101900020E9F73197AF01461B570BEE
:100A4000DC01ED91FC910280F381E02D0994CF93BC
:100A5000DF93BC0189EB93E00E941805EC0160E58F
:100A600071E089EB93E00E9418058C0F9D1FDF91C8
:100A7000CF9108954F925F926F927F928F929F9243
:100A8000AF92BF92CF92DF92EF92FF920F931F939C
:100A9000CF93DF93CDB7DEB7A1970FB6F894DEBF43
:100AA0000FBECDBF8C016B01770FEE08FF08F7FE7C
:100AB00049C0DC01ED91FC910190F081E02D6DE2E7
:100AC00009955C0122273327A9012C193D094E09FC
:100AD0005F0919A2FE01B1967F019AE0492E512CBF
:100AE000612C712CCA01B901A30192010E94970BDC
:100AF000605DD7016E937D012115310541055105DA
:100B000089F790E080E0109721F0BD01C8010E94B4
:100B100018058A0D9B1DA1960FB6F894DEBF0FBE77
:100B2000CDBFDF91CF911F910F91FF90EF90DF909C
:100B3000CF90BF90AF909F908F907F906F905F907D
:100B40004F900895A701960119A2FE01B1967F0169
:100B50008AE0882E912CA12CB12CCA01B901A501E3
:100B600094010E94970B605DD7016E937D01211562
:100B700031054105510589F790E080E0109759F261
:100B8000BD01C8010E941805C6CFCF93DF93BC01F9
:100B900089EB93E00E943A05EC0160E571E089EB96
:100BA00093E00E9418058C0F9D1FDF91CF9108954F
:100BB0000C94180585ED8093BC0080919103909171
:100BC0009203A0919303B09194030796A11DB11DC8
:100BD00023E0B695A795979587952A95D1F720910B
:100BE000BC0024FD03C010928F030895409191032F
:100BF000509192036091930370919403452B462B7F
:100C0000472B69F30097A105B10541F025E32A952B
:100C1000F1F700000197A109B109E1CF809190039C
:100C20000C94E9021F920F920FB60F9211242F938A
:100C30003F934F935F936F937F938F939F93AF9364
:100C4000BF93EF93FF9389EB93E00E940C01FF9118
:100C5000EF91BF91AF919F918F917F916F915F9134
:100C60004F913F912F910F900FBE0F901F901895AD
:100C70001F920F920FB60F9211242F938F939F9371
:100C8000EF93FF93E091C903F091CA038081E09153
:100C9000CF03F091D00382FD1BC090818091D203DD
:100CA0008F5F8F732091D303821741F0E091D203BD
:100CB000F0E0E754FC4F958F8093D203FF91EF91C2
:100CC0009F918F912F910F900FBE0F901F901895AD
:100CD0008081F4CF1F920F920FB60F9211242F93A1
:100CE0003F938F939F93AF93BF93809153039091C2
:100CF0005403A0915503B09156033091520323E061
:100D0000230F2D3758F50196A11DB11D20935203D5
:100D10008093530390935403A0935503B0935603C9
:100D20008091570390915803A0915903B0915A03B1
:100D30000196A11DB11D8093570390935803A09372
:100D40005903B0935A03BF91AF919F918F913F91F7
:100D50002F910F900FBE0F901F90189526E8230F2C
:100D60000296A11DB11DD2CF1F920F920FB60F9206
:100D700011242F933F934F935F936F937F938F93A0
:100D80009F93AF93BF93EF93FF938091B900887FB8
:100D9000803609F44AC0F0F5883209F4A7C018F586
:100DA000803109F49BC0B8F4882309F4F9C0883075
:100DB00009F494C0FF91EF91BF91AF919F918F91F2
:100DC0007F916F915F914F913F912F910F900FBE47
:100DD0000F901F901895883109F488C0803251F720
:100DE00080938D0314C0803409F49DC040F4803397
:100DF000B9F38833F9F680938D0385ECB0C0803564
:100E000009F485C0883509F496C0883499F60E94A3
:100E1000DA05D0CF883909F48CC038F5883729F045
:100E200050F4883611F0803729F683E080938F03E1
:100E30001092510357C0883809F47BC0803919F0EB
:100E4000803809F0B7CF80915103803208F071C02B
:100E5000E091510381E08E0F809351038091BB009C
:100E6000F0E0EF5CFC4F80833DC0803B39F0E0F464
:100E7000803A09F479C0883A09F09CCF84E08093E5
:100E80008F031092300310922F03E0915D03F091D5
:100E90005E03099580912F0381110FC081E080933B
:100EA0002F0310920F0309C0803C09F4A6CF883CA1
:100EB00009F4A3CF883B09F07DCFE091300381E0B6
:100EC0008E0F80933003F0E0E15FFC4F80818093D0
:100ED000BB009091300380912F0329C080916A0359
:100EE0008093BB0085EC8093BC0064CF90918C0311
:100EF00080918B03981758F5E0918C0381E08E0F59
:100F000080938C03F0E0E559FC4F8081E9CFE091BC
:100F10008C0381E08E0F80938C038091BB00F0E006
:100F2000E559FC4F808390918C0380918B03981737
:100F3000C8F285E8D8CFE0918C0381E08E0F8093D2
:100F40008C038091BB00F0E0E559FC4F80838091D9
:100F50008E0381115CCF81E08093690384EA8093E2
:100F6000BC0010928F0326CF85EC8093BC001092BA
:100F70008F0380915103803230F4E0915103F0E00F
:100F8000EF5CFC4F10826091510370E0E0915B03D5
:100F9000F0915C0381E393E00995109251030ACF2D
:100FA00010928D0334CFE9EBF3E01382128288EEC6
:100FB00093E0A0E0B0E084839583A683B78324E226
:100FC00031E03183208325EC30E03587248724EC21
:100FD00030E03787268720EC30E0318B208B21EC06
:100FE00030E0338B228B22EC30E0358B248B26ECE7
:100FF00030E0378B268B118E128E138E148EE6E521
:10100000F4E01382128284839583A683B78386E3F8
:1010100091E091838083E2E6F4E01382128288E417
:1010200091E0918380838EE3828780E6838780E1ED
:10103000848782E085870895CF93DF93CDB7DEB7AD
:1010400029970FB6F894DEBF0FBECDBF789484B554
:10105000826084BD84B5816084BD85B5826085BDB4
:1010600085B5816085BD80916E00816080936E0042
:101070001092810080918100826080938100809134
:1010800081008160809381008091800081608093E5
:1010900080008091B10084608093B1008091B000A5
:1010A00081608093B00080917A00846080937A00A0
:1010B00080917A00826080937A0080917A008160CA
:1010C00080937A0080917A00806880937A001092F1
:1010D000C10080E40E94C00480E48983E0E0F1E084
:1010E000DE01129681918D9381E0E830F807D1F707
:1010F00049E0BE016F5F7F4F82E694E00E94910459
:10110000E091C903F091CA0382E08083E091C503B6
:10111000F091C6031082E091C703F091C8038FECF1
:1011200080831092D103E091CD03F091CE0386E04D
:101130008083E091CB03F091CC0380818061808338
:10114000E091CB03F091CC03808188608083E091B3
:10115000CB03F091CC03808180688083E091CB0346
:10116000F091CC0380818F7D808360E08EE00E94CF
:101170001B0263E571E089EB93E00E94D8056EE005
:1011800070E089EB93E00E943A0589E591E00E94C6
:10119000270560E08FE00E941B0263E571E089EBA8
:1011A00093E00E94D8056FE070E089EB93E00E9425
:1011B0003A0589E591E00E94270560E080E10E9400
:1011C0001B0263E571E089EB93E00E94D80560E1C2
:1011D00070E089EB93E00E943A0589E591E00E9476
:1011E00027051092600310925F03109296031092ED
:1011F000B8030E94CB028CE890E090935E0380934A
:101200005D038DE890E090935C0380935B03109204
:10121000660480916F04823018F098E09093660421
:1012200080936A0410926B0462E370E080E090E0C7
:101230000E9471028091660480620E94C00465E091
:1012400070E080E090E00E9471028091660480620C
:101250000E94C00465E070E080E090E00E947102AE
:101260008091660480620E94C00484E080936704D9
:101270008CE00E94C0040E94D80482E0809368043D
:1012800086E00E94C00460E080E00E9477046FEF77
:1012900088E00E94770460E281E00E9477046FEFAB
:1012A00084E00E9477046FEF83E00E9477046FEF81
:1012B00082E00E94770460E084E00E94E00467E638
:1012C00071E082E694E00E94D80561E080E00E942F
:1012D000E00461E771E082E694E00E94D80517E03F
:1012E00061E0812F0E94E00469E771E082E694E00A
:1012F0000E94D80564E670E080E090E00E947102F0
:101300001F5F103169F708E011E0F801F080E1801B
:101310000E5F1F4F61E08F2D0E941B0263E571E09D
:1013200089EB93E00E94D8056F2D7E2D89EB93E029
:101330000E943A058BE791E00E942705F1E0003218
:101340001F0719F760E080E00E94E00468E871E0A0
:1013500082E694E00E94D80561E080E00E94E0040B
:1013600068E971E082E694E00E94D80560ED77E0DC
:1013700080E090E00E9471020E94D80460E080E06A
:101380000E94E00464EA71E082E694E00E94D805DD
:1013900068EE73E080E090E00E9471020E94D80441
:1013A00000E010E060E080E00E94E00463E572E0AD
:1013B00082E694E00E94D80560E082E694E00E9414
:1013C000FD046CEA71E082E694E00E94D805609129
:1013D00067037091680382E694E00E943A058EE00C
:1013E0000E94C401909366038093650360EC71E0F2
:1013F00089EB93E00E94D805809165039091660384
:101400000E94C50569EB71E089EB93E00E94D80565
:1014100090E080E00E94C5058FE00E94C401909397
:101420006403809363036CED71E089EB93E00E94A9
:10143000D80580916303909164030E94C50565ED12
:1014400071E089EB93E00E94D80590E080E00E9473
:10145000C50580E10E94C4019093620380936103FB
:1014600063EF71E089EB93E00E94D80580916103FE
:10147000909162030E94C5056AE072E089EB93E0F7
:101480000E94D80590E080E00E94C5058091650328
:1014900090916603892B09F481C080916703909134
:1014A00068030C9764F168E272E089EB93E00E94B4
:1014B000D80580916703909168030E94C5056EEB83
:1014C00072E089EB93E00E94D805E0916703F09108
:1014D0006803EE0FFF1FEA5FFE4F808191810E943B
:1014E000C505109266031092650361E080E00E94DA
:1014F000E00466E472E082E694E00E94D805809100
:10150000650390916603019709F048C080916703D5
:10151000909168030C970CF041C065E572E089EB8F
:1015200093E00E94D805E0916703F0916803EE0F05
:10153000FF1FE85FFE4F808191810E94C505809169
:101540006703909168030196909368038093670303
:1015500063E672E089EB93E00E94D805809167030F
:10156000909168030E94C50561E080E00E94E0045C
:1015700061E772E082E694E00E94D80564E670E0DC
:1015800080E090E00E94710261E080E00E94E0044F
:1015900062E872E082E694E00E94D80580916303DD
:1015A00090916403892B09F46EC080916703909138
:1015B000680318161906D4F063E972E089EB93E02A
:1015C0000E94D80580916703909168030E94C50529
:1015D000109264031092630361E080E00E94E004D3
:1015E00068EA72E082E694E00E94D8058091630385
:1015F00090916403019709F046C068EB72E089EBB3
:1016000093E00E94D805809167039091680301964A
:101610000E94C5058091670390916803019790939C
:1016200068038093670363E672E089EB93E00E94AE
:10163000D80580916703909168030E94C50560E01A
:101640008FE00E94E00461E972E082E694E00E948B
:10165000D80561E080E00E94E00464EC72E082E67C
:1016600094E00E94D80564E670E080E090E00E947B
:10167000710261E080E00E94E00462E872E082E6CC
:1016800094E00E94D8058091610390916203892BB8
:1016900009F441C00E94D80460E080E00E94E004A8
:1016A00065ED72E082E694E00E94D80588E0C82EDD
:1016B00081E0D82EF12CE12C809167039091680392
:1016C000E816F90634F561E080E00E94E00465EE7A
:1016D00072E082E694E00E94D8058FEFE81AF80ADB
:1016E000B70182E694E00E943A05F601B080F2E08C
:1016F000CF0ED11C61E08B2D0E94ED0168EE73E0EE
:1017000080E090E00E94710260E08B2D0E94ED016C
:10171000D3CF0E94D8040115110509F443CE0E94CD
:10172000F800882309F43ECE0E9400003BCEA1E2DF
:101730001A2EAA1BBB1BFD010DC0AA1FBB1FEE1F4B
:10174000FF1FA217B307E407F50720F0A21BB30B96
:10175000E40BF50B661F771F881F991F1A9469F712
:1017600060957095809590959B01AC01BD01CF016E
:101770000895EE0FFF1F0590F491E02D0994F89461
:10178000FFCF1F11111F0000000002000300040022
:10179000050006000700080009000A000B000C0005
:1017A0000D00000000002E018E00BB007B01EC004C
:1017B000CA00DE000000000048041B041505F10308
:1017C00014040104F20300000000FD048E0015055E
:1017D000A3020D0A0050696E3A200020636F6D6FFE
:1017E00020456E74726164610049444320203230A8
:1017F0003230004C4F4144494E47002E0020636F69
:101800006D6F2053616C69646100484543484F2007
:10181000454E204D455849434F0040696E672E6A3A
:1018200075616E2E7A004D41455354524F0020642D
:10183000652073616C696461733A00556C74696DFD
:101840006F2056616C6F7220646520426F746F6EFA
:10185000206D61733A2000556C74696D6F2056617C
:101860006C6F7220646520426F746F6E206D656EC0
:101870006F733A200056616C6F7220646520426F6E
:10188000746F6E20696E69636F3A2000556C7469DD
:101890006D6F2056616C6F7220646520426F746FAB
:1018A0006E20496E69636F3A2000546F6461732043
:1018B0006C61732073616C69646173206163746926
:1018C00076616461733A2000414C4C204F5554506E
:1018D000555453204F4E005072656E6465722070EF
:1018E000696E3A2000436F6E7461646F7220656E9A
:1018F0003A2000424F544F4E205B2B5D2020202089
:1019000020202000202020202020202020202020F7
:10191000202020200053616C69646173206465732A
:1019200061637469766164617300414C4C204F556A
:101930005450555453204F46460041706167612012
:1019400070696E3A2000424F544F4E205B2D5D204F
:1019500020202020202000454E5649414E444F2053
:101960002D2D2D2D3E200053616C696461200000F7
:107E0000112484B714BE81FFF0D085E080938100F7
:107E100082E08093C00088E18093C10086E0809377
:107E2000C20080E18093C4008EE0C9D0259A86E02C
:107E300020E33CEF91E0309385002093840096BBD3
:107E4000B09BFECF1D9AA8958150A9F7CC24DD24C4
:107E500088248394B5E0AB2EA1E19A2EF3E0BF2EE7
:107E6000A2D0813461F49FD0082FAFD0023811F036
:107E7000013811F484E001C083E08DD089C08234E0
:107E800011F484E103C0853419F485E0A6D080C0E4
:107E9000853579F488D0E82EFF2485D0082F10E0AE
:107EA000102F00270E291F29000F111F8ED06801E7
:107EB0006FC0863521F484E090D080E0DECF843638
:107EC00009F040C070D06FD0082F6DD080E0C81688
:107ED00080E7D80618F4F601B7BEE895C0E0D1E017
:107EE00062D089930C17E1F7F0E0CF16F0E7DF06D8
:107EF00018F0F601B7BEE89568D007B600FCFDCFD4
:107F0000A601A0E0B1E02C9130E011968C91119780
:107F100090E0982F8827822B932B1296FA010C0160
:107F200087BEE89511244E5F5F4FF1E0A038BF0790
:107F300051F7F601A7BEE89507B600FCFDCF97BE46
:107F4000E89526C08437B1F42ED02DD0F82E2BD052
:107F50003CD0F601EF2C8F010F5F1F4F84911BD097
:107F6000EA94F801C1F70894C11CD11CFA94CF0C13
:107F7000D11C0EC0853739F428D08EE10CD085E9AC
:107F80000AD08FE07ACF813511F488E018D01DD067
:107F900080E101D065CF982F8091C00085FFFCCF94
:107FA0009093C60008958091C00087FFFCCF809118
:107FB000C00084FD01C0A8958091C6000895E0E648
:107FC000F0E098E1908380830895EDDF803219F02E
:107FD00088E0F5DFFFCF84E1DECF1F93182FE3DFCA
:107FE0001150E9F7F2DF1F91089580E0E8DFEE27F6
:047FF000FF270994CA
:027FFE00040479
:00000001FF
